:030000000200A15A
:0C00A100787FE4F6D8FD75810F0200E8BE
:09021700010A00010900010B08B5
:09022100D2A1D2A0C2A1C2A02208
:07000300C2A1D2A0D2A1228C
:0A012D001202217FA01201377F01AA
:02013700AD0712
:10013900E4FB74807E00A803088006CEA2E713CEF4
:1001490013D8F8FFEDF582EF558224FF92A1D2A0D2
:0A015900C2A00BBB08DCD2A0C2A0BC
:010163002279
:1001B500E4FFD2A1FED2A030A10D7480A80608806C
:0D01C50002C313D8FC4207C2A00EBE08E81A
:0101D200220A
:0D019400AC0712012DAF0412013712000359
:1001A100750E03750FE8E50F150FAE0E7002150EF3
:0301B1004E70F39A
:0101B4002228
:1001F10012012D1202217FA11201371201B5D2A0E5
:05020100C2A012000381
:0102060022D5
:10016400E4FEC2B6C2B5FDEF3392B4EF25E0FFD290
:10017400B6C2B60DBD08F0E4FDD2B6EE25E0FE3001
:0F018400B703430601C2B60DBD08EED2B5AF06F4
:010193002249
:10020700438901758CFF758AA4D2A9D2AFD28C22FB
:03000B000201D31C
:1001D300C0E0C0D0758CFF758AA40509E509C395F5
:0E01E3000A5004D2A18002C2A1D0D0D0E032D6
:10000E001202071201F18F08E508F46004E508708A
:10001E00037508807F94120164AA0720B11530B1D0
:10002E00FDE508C394F05006740A2508F508AF08DC
:10003E0012019420B01530B0FDE508D3940A4006A5
:10004E0074F62508F508AF08120194E508250BFF94
:10005E00E433FEEAD39FEE6480F8748098400BE59B
:10006E000AD394004018150A8014C3E508950BFFB7
:0E007E00EAC39F5009E50AC394FF5002050A29
:10008C00750C13750D88E50D150DAE0C7002150C65
:05009C004E608380F1BD
:1000AD0002000EE493A3F8E493A34003F68001F25B
:1000BD0008DFF48029E493A3F85407240CC8C33354
:1000CD00C4540F4420C8834004F456800146F6DF23
:1000DD00E4800B0102040810204080900217E47E9A
:1000ED00019360BCA3FF543F30E509541FFEE49318
:1000FD00A360010ECF54C025E060A840B8E493A3DF
:10010D00FAE493A3F8E493A3C8C582C8CAC583CA09
:10011D00F0A3C8C582C8CAC583CADFE9DEE780BEC1
:0102200000DD
:00000001FF
