:030000000200BF3C
:0C00BF00787FE4F6D8FD75812002010670
:1001AA0048616368696D692053797374656D204F7E
:1001BA006E6C696E65210D0A003E3E204D6F6465C6
:1001CA003A20414C41524D204F4E0D0A003E3E20EE
:1001DA004D6F64653A2053454355524954590D0AA7
:0101EA000014
:1001EB00011A00010D3C011B00C1010C0E3F065B07
:1001FB004F666D7D077F6F7738010800020900009D
:06020B00C180020B00009F
:1002500075985043878053890F438920758BF475B7
:070260008DF4C2ABD28E2227
:080003008F993099FDC299228A
:100212008B1C8A1D891EAB1CAA1DA91E12023760E7
:1002220013051EE51E7002051D14F9120237FF1296
:05023200000380E22240
:10026700EF1392A2EFC3131392A3EF1313543F1389
:0302770092A4222C
:10027A005389F0438901758CFC758A66D2A9D2AF7D
:03028A00D28C22F1
:03000B0002000EE2
:0D000E00C0E0C0F0C0D075D000C000C00739
:10001B00758CFC758A66758000AF08120267E51A4D
:10002B007013E508B4070375806DE5086406703836
:10003B007580068033E508B40703758077E508B44F
:10004B000603758038E508B4010CE50D75F00A84DC
:10005B00240EF8E6F580E508700EE50D75F00A84C0
:10006B00740E25F0F8E6F5800508E508D3940740F3
:10007B0003750800E51AB4012C050AE50A700205A0
:10008B0009C39464E50994005006C2A0C2A5801967
:10009B00C3E50A94C8E5099400500280087509006D
:0900AB00750A008004D2A0D2A560
:0B00B400D007D000D0D0D0F0D0E03258
:10014B0012025012027A7BFF7A0179AA120212056F
:10015B000CE50C7002050BC39440E50B941F40EFAC
:10016B00E4F50BF50C20B117300014E51A70047F81
:10017B000180027F008F1AE51AB40103750D3C3024
:10018B00B117200014E51A7BFFB401067A0179C37D
:0F019B0080047A0179D7120212A2B1920080B0CB
:1000CB0002014BE493A3F8E493A34003F68001F2FF
:1000DB0008DFF48029E493A3F85407240CC8C33336
:1000EB00C4540F4420C8834004F456800146F6DF05
:1000FB00E4800B01020408102040809001EBE47EA9
:10010B00019360BCA3FF543F30E509541FFEE493F9
:10011B00A360010ECF54C025E060A840B8E493A3C0
:10012B00FAE493A3F8E493A3C8C582C8CAC583CAEB
:10013B00F0A3C8C582C8CAC583CADFE9DEE780BEA3
:0102110000EC
:10023700BB010689828A83E0225002E722BBFE02C5
:09024700E32289828A83E49322F8
:00000001FF
