:0300000002000EED
:0C000E00787FE4F6D8FD75810B020055E8
:06000300010900010800E4
:10010B005389F0438901758CFF758AA4D2A9D2AFAC
:03011B00D28C2261
:03000B000200ED03
:1000ED00C0E0C0D0758CFF758AA40508E508C395DE
:0E00FD00095004D2A18002C2A1D0D0D0E032BE
:10009A00E4FEC2B6C2B5FDEF3392B4EF25E0FFD25B
:1000AA00B6C2B60DBD08F0E4FDD2B6EE25E0FE30CC
:0F00BA00B703430601C2B60DBD08EED2B5AF06BF
:0100C9002214
:0E00CA0012010B7F9412009AC374FF9FF50978
:1000D800750A01750BF4E50B150BAE0A7002150ACB
:0500E8004E60E280F112
:10001A000200CAE493A3F8E493A34003F68001F232
:10002A0008DFF48029E493A3F85407240CC8C333E7
:10003A00C4540F4420C8834004F456800146F6DFB6
:10004A00E4800B0102040810204080900003E47E43
:10005A00019360BCA3FF543F30E509541FFEE493AB
:10006A00A360010ECF54C025E060A840B8E493A372
:10007A00FAE493A3F8E493A3C8C582C8CAC583CA9D
:10008A00F0A3C8C582C8CAC583CADFE9DEE780BE55
:0100090000F6
:00000001FF
