:0300000002000EED
:0C000E00787FE4F6D8FD758120020055D3
:0F020000010B00010C0002080000010A14C100EC
:1001C600EF1FAC0670011E4C600A7D027CEFDCFE60
:0401D600DDFC80ECE0
:0101DA002202
:07021F00D2A0120226D2A1B9
:050226000000000022B1
:0F021000D2A0D2A1120226C2A0120226C2A1229F
:08000300C2A0120221D2A022CA
:0A0148001202107FA01201527F0185
:02015200AD07F7
:10015400E4FB74807E00A803088006CEA2E713CED9
:1001640013D8F8FFEDF582EF558224FF92A0120216
:0C01740021C2A10BBB08DB12021FC2A1BC
:01018000225C
:10018100E4FFD2A0120226FED2A112022630A00D57
:100191007480A806088002C313D8FC4207C2A112CA
:0B01A10002260EBE08E212021FC2A1DF
:0101AC002230
:1001AD00AC07C28C120148AF041201521200037F3A
:0901BD000F7E001201C6D28C2253
:1001EE001201481202107FA1120152120181120057
:0101FE0003FD
:0101FF0022DD
:1001DB005389F0438901758CFF758A9CD2A9D2AFE4
:0301EB00D28C2291
:03000B000200F9F7
:1000F900C0E0C0D0758CFF758A9C050CE50CC395D2
:100109000B5004C2A18002D2A10509E509700205BC
:1001190008C3950AE5089400402075080075090090
:1001290020000C050BE50B94FA400FD200800B154B
:0F0139000BE50BD394055002C200D0D0D0E032BA
:10009A001201EE8F0AE50AD394645007E50AC39465
:1000AA00025003750A141201DB20B11F7F147E006F
:1000BA001201C620B115E50AD39405400674FB2542
:1000CA000AF50AAF0A1201AD30B1FD20B0DB7F1488
:1000DA007E001201C620B0D1E50AC3945F500674AF
:0F00EA0005250AF50AAF0A1201AD20B0BC80FB54
:10001A0002009AE493A3F8E493A34003F68001F262
:10002A0008DFF48029E493A3F85407240CC8C333E7
:10003A00C4540F4420C8834004F456800146F6DFB6
:10004A00E4800B0102040810204080900200E47E44
:10005A00019360BCA3FF543F30E509541FFEE493AB
:10006A00A360010ECF54C025E060A840B8E493A372
:10007A00FAE493A3F8E493A3C8C582C8CAC583CA9D
:10008A00F0A3C8C582C8CAC583CADFE9DEE780BE55
:01020F0000EE
:00000001FF
