:0300000002000EED
:0C000E00787FE4F6D8FD75810A020055E9
:09010900010800010A00010900CF
:1000F6005389F0438901758CFF758A9CD2A9D2AFCA
:03010600D28C2276
:03000B000200CE22
:1000CE00C0E0C0D0758CFF758A9C0508E508C39406
:1000DE00644003750800E508C3950A5004C2A08069
:0800EE0002D2A0D0D0D0E03214
:10009A001200F6E509700E050AE50AC394644011D8
:1000AA00750901800C150AE50AD394005003E4F59A
:1000BA0009E4FEFFC3EF942CEE940150D60FBF0063
:0400CA00010E80F0B3
:10001A0002009AE493A3F8E493A34003F68001F262
:10002A0008DFF48029E493A3F85407240CC8C333E7
:10003A00C4540F4420C8834004F456800146F6DFB6
:10004A00E4800B0102040810204080900109E47E3C
:10005A00019360BCA3FF543F30E509541FFEE493AB
:10006A00A360010ECF54C025E060A840B8E493A372
:10007A00FAE493A3F8E493A3C8C582C8CAC583CA9D
:10008A00F0A3C8C582C8CAC583CADFE9DEE780BE55
:0101120000EC
:00000001FF
