:0300000002000EED
:0C000E00787FE4F6D8FD75810C020055E7
:0D011000010800010900010C01020A0000B5
:1000FD005389F0438901758CFF758A9CD2A9D2AFC3
:03010D00D28C226F
:03000B0002009A56
:09009A00C0E0C0D075D000C00721
:1000A300758CFF758A9C0508E508C3946440037545
:1000B3000800E508C395095004C2A08002D2A00538
:1000C3000BE50B7002050AC394C8E50A94004023AC
:1000D300750A00750B00A2B1E433FFE50CB40111FE
:1000E300EF700E740A2509F509D39464400375096A
:0300F300008F0C6F
:0700F600D007D0D0D0E032AA
:050003001200FD80FE6B
:10001A00020003E493A3F8E493A34003F68001F2F9
:10002A0008DFF48029E493A3F85407240CC8C333E7
:10003A00C4540F4420C8834004F456800146F6DFB6
:10004A00E4800B0102040810204080900110E47E35
:10005A00019360BCA3FF543F30E509541FFEE493AB
:10006A00A360010ECF54C025E060A840B8E493A372
:10007A00FAE493A3F8E493A3C8C582C8CAC583CA9D
:10008A00F0A3C8C582C8CAC583CADFE9DEE780BE55
:01011D0000E1
:00000001FF
