:1003A80050617373776F72643A00554E4C4F434BEC
:0803B800004C4F434B202000D4
:10011C001203EB7BFF7A0379A87D017F0112034A5E
:10012C001200038F1CE51C60F7D3940A5041C3E501
:10013C00199404E51894005028AE1AAF1B7C007D6E
:10014C000A1202058E1A8F1BE51C75F00A84E5F065
:10015C00251BF51BE4351AF51A0519E5197002056E
:10016C0018750C04AB1BAA1A7D017F0212038BE5D8
:10017C001CB40BACE51BB4D20DE51AB404087BFF20
:10018C007A0379B280067BFF7A0379B97D0B7F0104
:10019C0012034AE4F51AF51BF518F519750C04ABA6
:1001AC001BAA1A7D017F0212038BE51C640C6003F1
:1001BC0002012CF51AF51BF518F519750C04AB1B7F
:0C01CC00AA1A7D017F0212038B02012C95
:1003D600EF1FAC0670011E4C600A7D027CEFDCFE4E
:0403E600DDFC80ECCE
:0103EA0022F0
:0603FF00C2A58F80D2A709
:080405007F027EEFDEFEDFFC4A
:01040D0022CC
:0A041A00C2A61203FFC2A7020405E8
:10036D00CFCDCFCECCCE1202177C007D0A12021754
:04037D00ED2430FF3C
:0A038100D2A61203FFC2A702040572
:1003C000AE07BE0104ED148006BE0209ED243F44D1
:0603D00080FF12041A2256
:1003EB007F3812041A7F0C12041A7F0612041A7F2C
:0403FB000102041ADD
:0A042400AC031203C0AF0402038111
:06034A008B088A09890AF4
:100350001203C0E4FDAB08AA09A90A8D82758300C7
:0C0360001201D8FF60061203810D80E935
:01036C00226E
:0C0317007F0AEA24FFFDE434FFFC7E00B6
:080323008E0D8F0E8C0F8D1062
:10032B007F017E00E4FBEBC39510E50F6480F8744E
:0E033B008098500AAC0DAD0E1202050B80E842
:010349002291
:04038B008A0A8B0B44
:10038F001203C0AA0CEAD39400400D120317AC0A53
:08039F00AD0B12036D1A80ED95
:0103A7002233
:10026C001203C0C3EA64809480400B7F2B1203817D
:10027C008A168B17800E7F2D120381C3E49BF51712
:10028C00E49AF516AA15EAD39400400D120317ACA4
:09029C0016AD1712036D1A80ED76
:0102A5002236
:0402A6008A1F8B2000
:1002AA001203C0AA21EAD3940040297F101203192D
:1002BA00AC1FAD20CFCDCFCECCCE120217EF540F4C
:1002CA00FEC3940AEE5004243080022437FF12033E
:0402DA00811A80D134
:0102DE0022FD
:0402DF008A248B25BD
:1002E3001203C0AA26EAD394004028EA24FFFDE4BF
:1002F30034FFFC7F027E00120323AC24AD25CFCD57
:10030300CFCECCCE120217EF54012430FF1203815B
:030313001A80D27B
:0103160022C4
:10000300E4F5087590FFC29320970C7F14FE12034A
:10001300D63097FD75080120960D7F147E001203DC
:10002300D63096FD75080520950D7F147E001203CA
:10003300D63095FD75080920940D7F147E001203B8
:10004300D63094FD75080D7590FFC29220970D7FF1
:10005300147E001203D63097FD75080220960D7F9B
:10006300147E001203D63096FD75080620950D7F89
:10007300147E001203D63095FD75080A20940D7F77
:10008300147E001203D63094FD75080E7590FFC2DE
:100093009120970D7F147E001203D63097FD7508CB
:1000A3000320960D7F147E001203D63096FD75084B
:1000B3000720950D7F147E001203D63095FD750839
:1000C3000B20940D7F147E001203D63094FD750827
:1000D3000F7590FFC29020970D7F147E001203D6F8
:1000E3003097FD75080420960D7F147E001203D609
:1000F3003096FD75080820950D7F147E001203D6F7
:100103003095FD75080C20940D7F147E001203D6E4
:080113003094FD750810AF08DF
:01011B0022C1
:0300000002040EE9
:0C040E00787FE4F6D8FD75812602011C01
:1001D800BB010CE58229F582E5833AF583E02250DC
:1001E80006E92582F8E622BBFE06E92582F8E22226
:0D01F800E58229F582E5833AF583E4932240
:10020500EF8DF0A4A8F0CF8CF0A428CE8DF0A42E0D
:02021500FE22C7
:10021700BC000BBE0029EF8DF084FFADF022E4CCCB
:10022700F875F008EF2FFFEE33FEEC33FCEE9DEC94
:10023700984005FCEE9DFE0FD5F0E9E4CEFD22EDDA
:10024700F8F5F0EE8420D21CFEADF075F008EF2F24
:10025700FFED33FD4007985006D5F0F222C398FD15
:050267000FD5F0EA22B2
:00000001FF
