:0300000002012ECC
:0C012E00787FE4F6D8FD75810C02000318
:10009D0041444320546573742053746172742E2E41
:1000AD002E0D0A00506F74656E74696F6D65746501
:0D00BD00722056616C75653A20000D0A0036
:1001080075985043878053890F438920758BF47500
:050118008DF4D28E22DF
:09011D0075F00A84E5F02430FFBE
:080126008F993099FDC2992266
:1000CA008B0A8A0B890CAB0AAA0BA90C1200EF60E7
:1000DA0013050CE50C7002050B14F91200EFFF1260
:0500EA00012680E22266
:10006700E4FEC2B5C2B6FDEF3392B4EF25E0FFD28E
:10007700B6C2B60DBD08F0E4FD0DBD06FCE4FDD229
:10008700B6EE25E0FE30B703430601C2B60DBD0844
:05009700EED2B5AF063A
:01009C002241
:100003001201087BFF7A00799D1200CA7FD4120087
:1000130067AE077BFF7A0079B11200CAEE75F06410
:10002300842430FF120126EE75F00A8412011DEEBE
:0C00330012011D7BFF7A0079C71200CA81
:10003F007508C3750950E5091509AE087002150852
:10004F004E70F37508C3750950E5091509AE0870B0
:08005F000215084E60AA80F1B1
:1000EF00BB010689828A83E0225002E722BBFE020F
:0900FF00E32289828A83E4932242
:00000001FF
