:0602670048656C6C6F009D
:100097001202247B637D017F0112025D7B637D0277
:1000A7007F0112025D7B627D037F0112025D7BFF90
:1000B7007A0279677D057F011201B0750C037B7B9E
:0B00C7007A007D017F021201F180FE33
:06023800C2A58F80D2A7D1
:08023E007F027EEFDEFEDFFC13
:010246002295
:0A025300C2A6120238C2A702023E42
:1001D300CFCDCFCECCCE1200427C007D0A1200429E
:0401E300ED2430FFD8
:0A01E700D2A6120238C2A702023E9F
:10020E00AE07BE0104ED148006BE0209ED243F4484
:06021E0080FF12025322D2
:100224007F381202537F0C1202537F061202537F4F
:04023400010202536E
:0A025D00AC0312020EAF040201E729
:0601B0008B088A09890A90
:1001B60012020EE4FDAB08AA09A90A8D8275830016
:0C01C600120003FF60061201E70D80E943
:0101D200220A
:0C017D007F0AEA24FFFDE434FFFC7E0052
:080189008E0D8F0E8C0F8D10FE
:100191007F017E00E4FBEBC39510E50F6480F874EA
:0E01A1008098500AAC0DAD0E1200300B80E8B5
:0101AF00222D
:0401F1008A0A8B0BE0
:1001F50012020EAA0CEAD39400400D12017DAC0A3E
:08020500AD0B1201D31A80EDCC
:01020D0022CE
:1000D20012020EC3EA64809480400B7F2B1201E768
:1000E2008A168B17800E7F2D1201E7C3E49BF5174A
:1000F200E49AF516AA15EAD39400400D12017DACDC
:0901020016AD171201D31A80EDAD
:01010B0022D1
:04010C008A1A8B1BA5
:1001100012020EAA1CEAD3940040297F1012017F1C
:10012000AC1AAD1BCFCDCFCECCCE120042EF540FC8
:10013000FEC3940AEE5004243080022437FF1201DB
:04014000E71A80D169
:010144002298
:040145008A1F8B2062
:1001490012020EAA21EAD394004028EA24FFFDE412
:1001590034FFFC7F027E00120189AC1FAD20CFCD98
:10016900CFCECCCE120042EF54012430FF1201E76A
:030179001A80D217
:01017C002260
:03000000020247B2
:0C024700787FE4F6D8FD75812102009755
:10000300BB010CE58229F582E5833AF583E02250B2
:1000130006E92582F8E622BBFE06E92582F8E222FC
:0D002300E58229F582E5833AF583E4932216
:10003000EF8DF0A4A8F0CF8CF0A428CE8DF0A42EE4
:02004000FE229E
:10004200BC000BBE0029EF8DF084FFADF022E4CCA2
:10005200F875F008EF2FFFEE33FEEC33FCEE9DEC6B
:10006200984005FCEE9DFE0FD5F0E9E4CEFD22EDB1
:10007200F8F5F0EE8420D21CFEADF075F008EF2FFB
:10008200FFED33FD4007985006D5F0F222C398FDEC
:050092000FD5F0EA2289
:00000001FF
