:0300000002001EDD
:0C001E00787FE4F6D8FD758120020065B3
:10016B00020D0000020BF88C010F00C101C103C18D
:0C017B0002010800010900010A00C18017
:10018800758911758CFF758A9C758D3C758BB0D2FD
:0A019800A9D2ABD2AFD28CD28E22D6
:03000B0002010BE4
:04010B00C0E0C0D0C0
:10010F00E50BF58CE50CF58A20021DB2A50508E577
:10011F0008C394644003750800E508C3950F5004A5
:0C012F00C2A08008D2A08004C2A5C2A01B
:05013B00D0D0D0E0323D
:03001B000201409F
:04014000C0E0C0D08B
:10014400758D3C758BB00509050AE509C394024019
:1001540005D203750900E50AC394044005D201756C
:020164000A008F
:05016600D0D0D0E03212
:1000AA0075100112018830031C200219C203E510E1
:1000BA00250FF50FC394645006E50F94005006E52A
:1000CA0010F404F510300128200225C201746425B9
:1000DA000CF50CE4350BF50BFEAF0CE4FCFD7BE8EC
:1000EA007AFDF9F8C31201A25006750BF8750C8C4B
:0300FA003003B31D
:0C00FD0020B105300002B202A2B1920056
:0201090080A5CF
:10002A000200AAE493A3F8E493A34003F68001F242
:10003A0008DFF48029E493A3F85407240CC8C333D7
:10004A00C4540F4420C8834004F456800146F6DFA6
:10005A00E4800B010204081020408090016BE47ECA
:10006A00019360BCA3FF543F30E509541FFEE4939B
:10007A00A360010ECF54C025E060A840B8E493A362
:10008A00FAE493A3F8E493A3C8C582C8CAC583CA8D
:10009A00F0A3C8C582C8CAC583CADFE9DEE780BE45
:010187000077
:1001A200EB9FF5F0EA9E42F0E99D42F0EC6480C8D4
:0601B20064809845F02274
:00000001FF
