:030000000201F208
:0C01F200787FE4F6D8FD75811302023915
:1001650030313233343536373839414243444546E8
:1001750000160C185E081C5A42524A000000000086
:10018500007F08142241007F494949410003047852
:100195000403000036360000003E5149453E00008C
:1001A500427F4000004261514946002141454B31A3
:1001B500001814127F10002745454539003C4A496F
:1001C50049300001710905030036494949360006E1
:1001D5004949291E007C1211127C007F4949493684
:0D01E500004F41414131007F4141221C008B
:0303A60001130040
:10035000D3EF9400EE940040147D727C00ED1D708C
:0D036000011CED4C70F7EF1F70E61E80E3EE
:01036D00226D
:10036E00C290ED24FF9292E4FEC294EF339293D2A8
:0B037E0094EF25E0FF0EBE08F0D290C7
:010389002251
:10038A00AC05EF24B0FFE4FD12036EECC4540F2455
:0C039A0010FF12036EEC540FFF02036E04
:05027E00FB7D287F025A
:10028300E4FABB4B030A8033BB45047A02802CBBE0
:1002930059047A038025BB3A047A04801EEBC39485
:1002A30030400CEBD394395006EB24D5FA800CBBC9
:1002B3004D047A118005BB44027A1212038AE4FCCE
:1002C300EA75F006A42480F582E43401F583E5821F
:1002D3002CF582E43583F583E493FF7D0112036EED
:0402E3000CBC06DC6D
:0102E70022F4
:1002E800C2917F327E00120350D2917F327E00127B
:1002F8000350E4FD7FE212036E7FA212036E7FA01B
:1003080012036E7FC812036E7F2312036E7F811261
:10031800036E7F3212036E7F2F12036E7FAF1203BC
:010328006E66
:10032900E4F50AE4FDAF0A12038AE4F50B7D01E462
:10033900FF12036E050BE50BC3946040F0050AE557
:060349000AC3940640DD2A
:01034F00228B
:03000300020006F2
:10000600C0E0C0D075D000C000C004C005C006C0A6
:0100160007E2
:10001700E4FFFE20B211C3EF94E8EE94035008000A
:100027000FBF00010E80ECC3EF94C8EE940050039D
:100037000200BB7E007F0030B211C3EF94F4EE9450
:10004700015008000FBF00010E80ECE4FD750C00A5
:100057007E007F0020B211C3EF9464EE9400500835
:10006700000FBF00010E80EC750D0030B215E50DD5
:05007700C39464500E6B
:0A007C00750E0AAC0E150EEC70F9BB
:10008600050D80E8740F2DF8C000E6C313D000F606
:10009600E50DD394074008740F2DF8E64480F60565
:1000A6000CE50CB408AB0DED640470A2E512F4B5D2
:0500B6001103751301A8
:0F00BB00D007D006D005D004D000D0D0D0E0328E
:1000CA001202E8D288D2A8D2AFD2B27B4B7D0A7F85
:1000DA00021202837B457D107F021202837B597DC7
:1000EA00167F021202837B3A7D1C7F02120283B2C0
:0C00FA00A07FC87E00120350E51360F3E5
:10010600E4F509F508E50890017693B51115E508BB
:10011600243012027E7B207D2E7F02120283750917
:100126000180090508E508C3940A40D9E509702A43
:10013600E511B446097B4D12027F7B448015E5111B
:10014600C4540F9001659312027EE511540F90017D
:0D0156006593FB7D2E7F02120283E4F513FA
:02016300809486
:1001FE000200CAE493A3F8E493A34003F68001F24D
:10020E0008DFF48029E493A3F85407240CC8C33301
:10021E00C4540F4420C8834004F456800146F6DFD0
:10022E00E4800B01020408102040809003A6E47EB7
:10023E00019360BCA3FF543F30E509541FFEE493C5
:10024E00A360010ECF54C025E060A840B8E493A38C
:10025E00FAE493A3F8E493A3C8C582C8CAC583CAB7
:10026E00F0A3C8C582C8CAC583CADFE9DEE780BE6F
:0103A9000053
:00000001FF
