:03000000020100FA
:0C010000787FE4F6D8FD758120020147ED
:1001CE00011C00010D3C011D00011E05C1010E0E9A
:1001DE003F065B4F666D7D077F6F77386D40010878
:0D01EE0000010900020A0000010C00C180A0
:10023300EF1392A2EFC3131392A3EF1313543F13BD
:0302430092A42260
:10021900758911758CFC758A66758D3C758BB0D2A4
:0A022900A9D2ABD2AFD28CD28E2244
:03000B0002001ED2
:0D001E00C0E0C0F0C0D075D000C000C00729
:10002B00758CFC758A660509E509C39464400375F4
:10003B000900E51C7011E509C3951E5004C2A08090
:10004B0002D2A0D2A5802E050BE50B7002050AC3C8
:10005B009464E50A94005006C2A0C2A58017C3E5BC
:10006B000B94C8E50A94005006D2A0D2A580067561
:10007B000A00750B00758000AF08120233E51C7087
:10008B0013E508B40703851A80E5086406704F85ED
:10009B000F80804AE508B40703851880E508B4068D
:1000AB0003851980E508B4020CE50D75F064842412
:1000BB000EF8E6F580E508B40112E50D75F00A843B
:1000CB0075F00A84740E25F0F8E6F580E508700EDD
:1000DB00E50D75F00A84740E25F0F8E6F580050839
:0A00EB00E508D394074003750800F0
:0B00F500D007D000D0D0D0F0D0E03217
:03001B000201FCE3
:0401FC00C0E0C0D0CF
:10020000758D3C758BB0050CE50CC394024005D28E
:0402100001750C0068
:05021400D0D0D0E03263
:10018C001202193001FDC20120B11230000FE51C22
:10019C007008751C01750D3C8003E4F51CA2B1922E
:1001AC0000E51CB401DD051DE51DC3946440D4E4D9
:1001BC00F51DE50DD394004004150D80C6E4F51C27
:0201CC0080C1F0
:10010C0002018CE493A3F8E493A34003F68001F27C
:10011C0008DFF48029E493A3F85407240CC8C333F4
:10012C00C4540F4420C8834004F456800146F6DFC3
:10013C00E4800B01020408102040809001CEE47E84
:10014C00019360BCA3FF543F30E509541FFEE493B8
:10015C00A360010ECF54C025E060A840B8E493A37F
:10016C00FAE493A3F8E493A3C8C582C8CAC583CAAA
:10017C00F0A3C8C582C8CAC583CADFE9DEE780BE62
:0101FB000003
:00000001FF
