:0300000002000EED
:0C000E00787FE4F6D8FD75810A020055E9
:09010700010900010801010A01CF
:1000F2005389F0438901758C3C758AB0C28DD2A9AF
:05010200D2AFD28C22F7
:03000B0002009A56
:0B009A00C0E0C0D075D000C006C00759
:1000A500758C3C758AB0A2B1E433FFE50AB4010F43
:1000B500EF700CE50870047E0180027E008E088FCB
:1000C5000A0509E508700CE509C394144005B2A0BA
:1000D500750900E508B4010CE509C394044005B2AF
:0400E500A0750900F9
:0900E900D007D006D0D0D0E032DF
:050003001200F280FE76
:10001A00020003E493A3F8E493A34003F68001F2F9
:10002A0008DFF48029E493A3F85407240CC8C333E7
:10003A00C4540F4420C8834004F456800146F6DFB6
:10004A00E4800B0102040810204080900107E47E3E
:10005A00019360BCA3FF543F30E509541FFEE493AB
:10006A00A360010ECF54C025E060A840B8E493A372
:10007A00FAE493A3F8E493A3C8C582C8CAC583CA9D
:10008A00F0A3C8C582C8CAC583CADFE9DEE780BE55
:0101100000EE
:00000001FF
