:0300000002015E9C
:0C015E00787FE4F6D8FD75811502011DC4
:10013E003F065B4F666D7D077F6F777C395E797109
:01014E00763A
:04014F007F017E00AE
:0B015300EF1FAC0670011E4C70F6227E
:1000E800E4FDED14600B14601024027012D2A2809B
:1000F80002C2A2D2A3D2A48006D2A2C2A3D2A4745E
:100108000C2DF8E6F5807F647E00120153E4F5803B
:040118000DBD03CE48
:01011C0022C0
:09016A00D288D2A8D2AFD2B22291
:10011D0012016AE50AC4540F90013E93F50CE50AED
:10012D00540F93F50D90014EE493F50E1200E880F7
:01013D00E2DF
:03000300020006F2
:10000600C0E0C0D075D000C000C002C003C004C0AC
:0500160005C006C00753
:10001B007FBC7E0212015330B2030200D57BE87A1B
:10002B000320B213D3EB9400EA9400400A12014F61
:10003B00EB1B70ED1A80EA20B2030200D57A017B2C
:10004B00F430B213D3EB9400EA9400400A12014F40
:10005B00EB1B70ED1A80EAE4FD7514007A007B3C13
:10006B0020B213D3EB9400EA9400400A12014FEB39
:10007B001B70ED1A80EA7A017BF475150030B22003
:10008B00D3EB9400EA940040177F0A7E00120153D1
:10009B000515EB1B70011AE515D3941E40DF802A62
:1000AB0074082DF8C000E6C313D000F6E515C39411
:1000BB0008400874082DF8E64480F60514E514C3CF
:0A00CB00940840980DED6404708F56
:1000D500D007D006D005D004D003D002D000D0D0B0
:0300E500D0E03236
:00000001FF
