:0300000002018A70
:0C018A00787FE4F6D8FD75811F0201D1DA
:10029C0030313233343536373839414243444546B0
:0102AC000051
:10028500011D0011082050656368696E205363697C
:06029500656E63652000A8
:06023600D2A77F027E004A
:10023C00D3EF9400EE9400400F7DC77C01DCFEDD13
:08024C00FAEF1F70EB1E80E8C1
:010254002287
:07026E007E0012023C7F3804
:10027500C2A7C2A6C2A58F800000120236C2A7225D
:09025500540F93FF12025E7F209A
:10025E00C2A7D2A6C2A58F800000120236C2A72264
:100216007F1412026E7F0512026E7F0C1202757F2A
:10022600061202757F011202757F057E0002023CEE
:0402AD007F017E004F
:0B02B100EF1FAC0670011E4C70F6221F
:0902BC00D288D2A8D2AFD2B2223E
:1000F1001202161202BC7F80120275E4FB74082BF7
:10010100F8E6FF12025E0BBB10F37FC01202757F8F
:100111005712025E7F6112025E7F6912025E7F7476
:1001210012025E7F6912025E7F6E12025E7F6712AB
:10013100025E7F2E12025E7F2E12025EE51D60FCC2
:10014100E4F51D7FC01202757F4112025E7F3A12F3
:10015100025EE519C4540F90029C93FF12025EE502
:10016100191202557F4312025E7F3A12025EE51BAD
:10017100C4540F93FF12025EE51B1202557F4F120A
:09018100025E7F4B12025E80B3A6
:03000300020006F2
:10000600C0E0C0D075D000C000C002C003C004C0AC
:0500160005C006C00753
:10001B007FBC7E021202B130B2030200DE7BE87AB3
:10002B000320B213D3EB9400EA9400400A1202AD02
:10003B00EB1B70ED1A80EA20B2030200D57A017B2C
:10004B00F430B213D3EB9400EA9400400A1202ADE1
:10005B00EB1B70ED1A80EAE4FD751E007A007B3C09
:10006B0020B213D3EB9400EA9400400A1202ADEBDA
:10007B001B70ED1A80EA7A017BF4751F0030B220F9
:10008B00D3EB9400EA940040177F0A7E001202B172
:10009B00051FEB1B70011AE51FD3941E40DF803345
:1000AB0074192DF8C000E6C313D000F6E51FC394F6
:1000BB0008400874192DF8E64480F6051EE51EC3AA
:1000CB00940840980DED6404708FE51CF4B51B0388
:0300DB00751D018F
:1000DE00D007D006D005D004D003D002D000D0D0A7
:0300EE00D0E0322D
:100196000200F1E493A3F8E493A34003F68001F28E
:1001A60008DFF48029E493A3F85407240CC8C3336A
:1001B600C4540F4420C8834004F456800146F6DF39
:1001C600E4800B0102040810204080900285E47E42
:1001D600019360BCA3FF543F30E509541FFEE4932E
:1001E600A360010ECF54C025E060A840B8E493A3F5
:1001F600FAE493A3F8E493A3C8C582C8CAC583CA20
:10020600F0A3C8C582C8CAC583CADFE9DEE780BED7
:01029B000062
:00000001FF
