:030000000200C338
:0C00C300787FE4F6D8FD75812002010A68
:10018900020EF88C011A05C101C103C1020A103F10
:10019900065B4F666D7D077F6F010800010901024B
:0B01A9000A0000010C00010D00C180E5
:1001FA001FEF1392A2EFC3131392A3EF1313543FEB
:04020A001392A42285
:1001E000758911758CFC758A66758D3C758BB0D2DE
:0A01F000A9D2ABD2AFD28CD28E227E
:03000B0002001ED2
:0D001E00C0E0C0F0C0D075D000C000C00729
:10002B00758CFC758A6620021B050BE50B700205AF
:10003B000AC39402E50A9400400CB2A5750A007538
:10004B000B008002C2A50508E508C3946440037544
:10005B00080020020FE508C3951A5004C2A08006C1
:10006B00D2A08002C2A0758000AF091201FAE50987
:10007B00B4010CE51A75F00A842410F8E6F580E556
:10008B0009B4020EE51A75F00A84741025F0F8E62F
:10009B00F580E509B4080AA202E4332410F8E6F56A
:0D00AB00800509E509D3940840037509019B
:0B00B800D007D000D0D0D0F0D0E03254
:03001B000201B52A
:0401B500C0E0C0D016
:1001B900758D3C758BB0050C050DE50CC39402409B
:1001C90005D203750C00E50DC394044005D20175F1
:0201D9000D0017
:0501DB00D0D0D0E0329D
:10014F007F011201E0300319200216C203EF251AB6
:10015F00F51AC394645006E51A94005004EFF404A2
:10016F00FF300105200202C2013003D920B1053052
:0A017F000002B202A2B1920080CB90
:1000CF0002014FE493A3F8E493A34003F68001F2F7
:1000DF0008DFF48029E493A3F85407240CC8C33332
:1000EF00C4540F4420C8834004F456800146F6DF01
:1000FF00E4800B0102040810204080900189E47E07
:10010F00019360BCA3FF543F30E509541FFEE493F5
:10011F00A360010ECF54C025E060A840B8E493A3BC
:10012F00FAE493A3F8E493A3C8C582C8CAC583CAE7
:10013F00F0A3C8C582C8CAC583CADFE9DEE780BE9F
:0101B400004A
:00000001FF
