:0300000002013DBD
:0C013D00787FE4F6D8FD75810702007D94
:1000E8000000000000007F0808087F007F49494998
:0E00F80041007F40404040003E4141413E00FB
:1000CA00D3EF9400EE940040147D727C00ED1D7015
:0D00DA00011CED4C70F7EF1F70E61E80E377
:0100E70022F6
:1000A400C290ED24FF9292E4FEC294EF30E704D2B2
:1000B400938002C2930000D2940000EF25E0FF0E6B
:0500C400BE08E6D29029
:0100C9002214
:10010600AC05EF24B0FFE4FD1200A4ECC4540F24A8
:0C01160010FF1200A4EC540FFF0200A424
:10012200E4FBAF03E4FD120106E4FC7D01E4FF12EF
:0A01320000A40CBC60F50BBB06E84E
:01013C0022A0
:030050000B7F0221
:10005300120106E4FCEB75F006A424E8F582E4340F
:1000630000F583E5822CF582E43583F583E493FF81
:090073007D011200A40CBC06DCA6
:01007C002261
:10000300C2917F647E001200CAD2917F647E001287
:1000130000CAE4FD7FE21200A47F147E001200CA2E
:10002300E4FD7FA21200A47FA01200A47FC81200E7
:10003300A47F231200A47F811200A47F301200A4A6
:0D0043007F2F1200A47FAF1200A402012243
:10007D001200037B017D1E7F021200537D241200AE
:10008D00507D2A1200507D307F021200530B7D36B9
:07009D007F0212005380FEF8
:00000001FF
