:0300000002001EDD
:0C001E00787FE4F6D8FD758120020065B3
:05000300C1000108002E
:1000F5005389F0438901758CF8758A8CD2A9D2AFE2
:03010500D28C2277
:1001080053890F438910758C3C758AB0D2ABD28E57
:0101180022C4
:03000B00020119D6
:0F011900C0E0E509F58CE50AF58AB2A5D0E03221
:03001B000200D808
:0400D800C0E0C0D0F4
:1000DC00758D3C758BB00508E508C394044005D2BA
:0400EC000075080093
:0500F000D0D0D0E03289
:1000AA00E4FD1200F51201087509F8750A8C300092
:1000BA00FDC2000DEDD3940A4002E4FDED75F0C8CF
:0E00CA00A4AEF0248CF50AEE34F8F50980E0BF
:10002A000200AAE493A3F8E493A34003F68001F242
:10003A0008DFF48029E493A3F85407240CC8C333D7
:10004A00C4540F4420C8834004F456800146F6DFA6
:10005A00E4800B0102040810204080900003E47E33
:10006A00019360BCA3FF543F30E509541FFEE4939B
:10007A00A360010ECF54C025E060A840B8E493A362
:10008A00FAE493A3F8E493A3C8C582C8CAC583CA8D
:10009A00F0A3C8C582C8CAC583CADFE9DEE780BE45
:0100080000F7
:00000001FF
