:0300000002000EED
:0C000E00787FE4F6D8FD758120020055D3
:0C00FC00010800010900020A0000C10018
:1000E9005389F0438901758CFF758A9CD2A9D2AFD7
:0300F900D28C2284
:03000B0002009A56
:10009A00C0E0C0D0758CFF758A9C0509E509C39537
:1000AA00085004C2A18002D2A1050BE50B7002051B
:1000BA000AC39432E50A94004020750A00750B00C1
:1000CA0020000C0508E50894FA400FD200800B15B1
:0F00DA0008E508D394055002C200D0D0D0E03220
:050003001200E980FE7F
:10001A00020003E493A3F8E493A34003F68001F2F9
:10002A0008DFF48029E493A3F85407240CC8C333E7
:10003A00C4540F4420C8834004F456800146F6DFB6
:10004A00E4800B01020408102040809000FCE47E4A
:10005A00019360BCA3FF543F30E509541FFEE493AB
:10006A00A360010ECF54C025E060A840B8E493A372
:10007A00FAE493A3F8E493A3C8C582C8CAC583CA9D
:10008A00F0A3C8C582C8CAC583CADFE9DEE780BE55
:0101080000F6
:00000001FF
