:030000000203F800
:0C03F800787FE4F6D8FD75812502043FF3
:1004FC0053797374656D2053746172742120546147
:10050C00726765743A2025640A005265616C3A255D
:10051C006275207C205461726765743A256275207F
:0C052C007C2050574D3A2562750D0A00E6
:0C05F700012400012300012280012508DE
:1005D00075985053890F438920758DFD758BFDD219
:0405E0008ED29922FC
:1005E4005389F0438901758CFF758AA4D2A9D2AFCF
:0305F400D28C2284
:03000B000205B239
:1005B200C0E0C0D0758CFF758AA40523E523C395DE
:0E05C200245004D2A18002C2A1D0D0D0E032D9
:10053800E4FEC2B6C2B5FDEF3392B4EF25E0FFD2B8
:10054800B6C2B60DBD08F0E4FDD2B6EE25E0FE3029
:0F055800B703430601C2B60DBD08EED2B5AF061C
:010567002271
:02058F00AC07B7
:10059100E4FBFAF9AF04120538EF2BFBE43AFA0950
:1005A100B908F1EBAE027803CEC313CE13D8F9FF2D
:0105B1002227
:100484001205D01205E47BFF7A0479FC750E008511
:10049400220F1200707F9412058F8F08E522252504
:1004A400FFE433FED3E5089FEE6480F8748098403F
:1004B4000BE524D39400401915248015C3E5229537
:1004C40025FFE508C39F5009E524C394FF500205A6
:1004D400247BFF7A05791685080E85220F85241062
:0304E40012007093
:1004E700750927750A10E50A150AAE09700215097C
:0504F7004E609F80F142
:10040400020484E493A3F8E493A34003F68001F286
:1004140008DFF48029E493A3F85407240CC8C333F9
:10042400C4540F4420C8834004F456800146F6DFC8
:10043400E4800B01020408102040809005F7E47E5C
:10044400019360BCA3FF543F30E509541FFEE493BD
:10045400A360010ECF54C025E060A840B8E493A384
:10046400FAE493A3F8E493A3C8C582C8CAC583CAAF
:10047400F0A3C8C582C8CAC583CADFE9DEE780BE67
:0106030000F6
:10000E00E51A240EF8E6051A22780B300702780E50
:10001E00E475F0011203C202036A2000EB7F2ED2B8
:10002E00008018EF540F2490D43440D4FF30040BCA
:10003E00EF24BFB41A0050032461FFE51B600215C4
:10004E001B051EE51E7002051D30070D780BE475AD
:10005E00F0011203C2EF0203B00205687403D20767
:10006E008003E4C207F51A8B0B8A0C890DE4F51B8D
:10007E00F51DF51EE51B60077F2012004980F57502
:10008E001CFFC201C200C202C203C205C206C208E0
:10009E00120017FF700D3007057F0012005AAF1EB9
:1000AE00AE1D22B4255FC2D5C204120017FF24D0A4
:1000BE00B40A00501A75F00A781B30D50508B6FF41
:1000CE000106C6A426F620D5047002D20380D924D8
:1000DE00CFB41A00EF5004C2E5D20402025AD20184
:1000EE0080C6D20080C0D20280BCD2D580BAD205E2
:1000FE0080B47F201200492002077401B51B004016
:10010E00F112000EFF120049020082D208D20680C0
:10011E009512000EFB12000EFA12000EF94A4B70E9
:10012E0006792B7A037BFF20022EE51B602A7E00C8
:10013E008E8275830012038360060EEE651C70F0CE
:10014E00C2D5EBC0E0EAC0E0E9C0E0EE1202A1D0F9
:10015E00E0F9D0E0FAD0E0FB12036AFF60AAEBC030
:10016E00E0EAC0E0E9C0E0120049D0E02401F9D095
:10017E00E03400FAD0E0FBE51C0460DCD51CD9802D
:10018E00877BFF7A02799DD202809C79108002795A
:10019E0008C206C2088008D2D5790A8004790AC23C
:1001AE00D5E51C047002F51CE4FAFDFEFF12000EEC
:1001BE00FC7B0820011312000EFD7B1030000A128A
:1001CE00000EFE12000EFF7B20EC3382D592D5502E
:1001DE0013C3E43000069FFFE49EFEE42001039D5E
:1001EE00FDE49CFCE4CBF8C201EC700CCFCECDCC80
:1001FE00E824F8F870F38017C3EF33FFEE33FEED0B
:10020E0033FDEC33FCEB33FB994002FB0FD8E9EBEB
:10021E00300105F8D0E0C448B201C0E00AEC4D4E02
:10022E004F78207B0070C2EAB51C0040BCC0E012C3
:10023E0002A3D0F0D0E0200104C4C0E0C4B201C0DB
:10024E00F0120032D0F0D5F0EB0200821203D20190
:10025E001F5301995800F04C00EC42019D4F01A52F
:0F026E004401A54901054301AB55018F46018F9E
:10027D0045018F47034B5000F42D00F82E011B2B29
:10028D0000FC2301192003342A00B4480000011397
:10029D003F3F3F00790AA2D5200314300509B9105C
:1002AD00020404B9080104A2D5200602500104205D
:1002BD0002689202B51B005034C0E07F2030031954
:1002CD007F30A20272067205500F1202FAC202C2EC
:1002DD0006C205C2087F30800F300503E9C0E01269
:1002ED000049300503D0E0F9D0E0B51BCC3005173F
:1002FD007F30B9100C1200497F583004077F788089
:10030D0003B908031200493002057F2D0200497F11
:10031D00202008F87F2B2006F322920280CF286E32
:10032D00756C6C2900D20112000E3001F8C20178F3
:10033D001B30D50108F60200B42D50434958120068
:10034D000E2403B405004001E49003469312003AD5
:0D035D00743A12003AD203751B0402019994
:10036A00BB010689828A83E0225002E722BBFE0291
:09037A00E32289828A83E49322C4
:10038300BB010CE58229F582E5833AF583E022502F
:1003930006E92582F8E622BBFE06E92582F8E22279
:0D03A300E58229F582E5833AF583E4932293
:1003B000BB010689828A83F0225002F722BBFE012C
:0203C000F32226
:1003C200FAE6FB0808E6F925F0F618E6CA3AF6223C
:1003D200D083D082F8E4937012740193700DA3A3BA
:1003E20093F8740193F5828883E4737402936860CE
:0603F200EFA3A3A380DFCE
:10056800EFB40A07740D120573740A309811A8992C
:10057800B8130CC2983098FDA899C298B811F630F3
:0705880099FDC299F59922CB
:00000001FF
